00100000         299999999999999900010004086521000000000001XECKERMANN YAEGASHI E SANTOS   BANCO DO BRASIL S.A.                    123102025205255000001087                                                                                000001
00100011P20040087 2999999999999999000000000000408652                    ECKERMANN YAEGASHI E SANTOS                                                                                   Referencia                                      0000000000
0010001300001P 010010001 000000000001 03077d3c-3ae4-492f-8                        111111111111111SUIT:03077d3c-3 - SUIT: 334113          000000000022500000001000010000023102025000000000000000           0000    01                            
0010001300001Q 011111111111111111SUIT:03077d3c-3 - SUIT: 3341133 N° ProceRua Exemplo, 123                        Centro         Sao Paulo           01001000SP                                                                            000000
0010001300002P 010010001 000000000001 04b09c35-47c1-49e4-9                        111111111111111SUIT:04b09c35-4 - SUIT: 356309          000000000230822000001000010000023102025000000000000000           0000    01                            
0010001300002Q 011111111111111111SUIT:04b09c35-4 - SUIT: 3563098 N° ProceRua Exemplo, 123                        Centro         Sao Paulo           01001000SP                                                                            000000
0010001300003P 010010001 000000000001 147bae24-e18d-483f-9                        111111111111111SUIT:147bae24-e - Processo nº           000000000100000000001000010000023102025000000000000000           0000    01                            
0010001300003Q 011111111111111111SUIT:147bae24-e - Processo nº 0080113-14Rua Exemplo, 123                        Centro         Sao Paulo           01001000SP                                                                            000000
0010001300004P 010010001 000000000001 190a8254-d5a6-41e6-a                        111111111111111SUIT:190a8254-d - AT - 634* Pr          000000000032689000001000010000023102025000000000000000           0000    01                            
0010001300004Q 011111111111111111SUIT:190a8254-d - AT - 634* Processo: 10Rua Exemplo, 123                        Centro         Sao Paulo           01001000SP                                                                            000000
0010001300005P 010010001 000000000001 2d4c8367-a1c0-4107-8                        111111111111111SUIT:2d4c8367-a - AT - 247 000          000000000055000000001000010000023102025000000000000000           0000    01                            
0010001300005Q 011111111111111111SUIT:2d4c8367-a - AT - 247 0007215-40.20Rua Exemplo, 123                        Centro         Sao Paulo           01001000SP                                                                            000000
0010001300006P 010010001 000000000001 4f79c67c-3104-4a00-b                        111111111111111SUIT:4f79c67c-3 - PASTA: 36306          000000000022882000001000010000023102025000000000000000           0000    01                            
0010001300006Q 011111111111111111SUIT:4f79c67c-3 - PASTA: 3630603 PROCESSRua Exemplo, 123                        Centro         Sao Paulo           01001000SP                                                                            000000
0010001300007P 010010001 000000000001 68fcf1a1-6c81-4af3-8                        111111111111111SUIT:68fcf1a1-6 - ACORDO Credi          000000000150000000001000010000023102025000000000000000           0000    01                            
0010001300007Q 011111111111111111SUIT:68fcf1a1-6 - ACORDO Credi: Entrada Rua Exemplo, 123                        Centro         Sao Paulo           01001000SP                                                                            000000
0010001300008P 010010001 000000000001 847442cc-5a39-44b5-a                        111111111111111SUIT:847442cc-5 - ALVARÁ PROCE          000000000103270000001000010000023102025000000000000000           0000    01                            
0010001300008Q 011111111111111111SUIT:847442cc-5 - ALVARÁ PROCESSO: 05002Rua Exemplo, 123                        Centro         Sao Paulo           01001000SP                                                                            000000
0010001300009P 010010001 000000000001 9e1d7af9-2668-4c2b-9                        111111111111111SUIT:9e1d7af9-2 - Dossiê: 3397          000000000024647000001000010000023102025000000000000000           0000    01                            
0010001300009Q 011111111111111111SUIT:9e1d7af9-2 - Dossiê: 3397611 N° do Rua Exemplo, 123                        Centro         Sao Paulo           01001000SP                                                                            000000
0010001300010P 010010001 000000000001 a08e68df-e11f-4e9c-9                        111111111111111SUIT:a08e68df-e - CUMPRIMENTO           000000000007764000001000010000023102025000000000000000           0000    01                            
0010001300010Q 011111111111111111SUIT:a08e68df-e - CUMPRIMENTO DA PJR CréRua Exemplo, 123                        Centro         Sao Paulo           01001000SP                                                                            000000
0010001300011P 010010001 000000000001 b51dffee-8e38-436a-8                        111111111111111SUIT:b51dffee-8 - Processo nº           000000000010000000001000010000023102025000000000000000           0000    01                            
0010001300011Q 011111111111111111SUIT:b51dffee-8 - Processo nº 0080113-14Rua Exemplo, 123                        Centro         Sao Paulo           01001000SP                                                                            000000
0010001300012P 010010001 000000000001 b605121a-2760-433b-b                        111111111111111SUIT:b605121a-2 - SUIT: 333214          000000000048063000001000010000023102025000000000000000           0000    01                            
0010001300012Q 011111111111111111SUIT:b605121a-2 - SUIT: 3332147 N° ProceRua Exemplo, 123                        Centro         Sao Paulo           01001000SP                                                                            000000
0010001300013P 010010001 000000000001 bc810f8e-878e-4eb1-b                        111111111111111SUIT:bc810f8e-8 - Dossiê: 3397          000000000002378000001000010000023102025000000000000000           0000    01                            
0010001300013Q 011111111111111111SUIT:bc810f8e-8 - Dossiê: 3397611 N° do Rua Exemplo, 123                        Centro         Sao Paulo           01001000SP                                                                            000000
0010001300014P 010010001 000000000001 c5848a8d-21e9-4440-b                        111111111111111SUIT:c5848a8d-2 - SUIT: 324554          000000000024907000001000010000023102025000000000000000           0000    01                            
0010001300014Q 011111111111111111SUIT:c5848a8d-2 - SUIT: 3245549 N° ProceRua Exemplo, 123                        Centro         Sao Paulo           01001000SP                                                                            000000
0010001300015P 010010001 000000000001 c9db5d85-e9cb-4c79-b                        111111111111111SUIT:c9db5d85-e - SUIT: 334359          000000000040642000001000010000023102025000000000000000           0000    01                            
0010001300015Q 011111111111111111SUIT:c9db5d85-e - SUIT: 3343592 N° ProceRua Exemplo, 123                        Centro         Sao Paulo           01001000SP                                                                            000000
0010001300016P 010010001 000000000001 ceb5d810-8c98-48ba-b                        111111111111111SUIT:ceb5d810-8 - AT - 394 * P          000000000062000000001000010000023102025000000000000000           0000    01                            
0010001300016Q 011111111111111111SUIT:ceb5d810-8 - AT - 394 * Processo 00Rua Exemplo, 123                        Centro         Sao Paulo           01001000SP                                                                            000000
0010001300017P 010010001 000000000001 f5c2d400-cc1c-451b-8                        111111111111111SUIT:f5c2d400-c - SUIT: 333214          000000000004078000001000010000023102025000000000000000           0000    01                            
0010001300017Q 011111111111111111SUIT:f5c2d400-c - SUIT: 3332147 N° ProceRua Exemplo, 123                        Centro         Sao Paulo           01001000SP                                                                            000000
0010001300018P 010010001 000000000001 f9271702-4a91-43f7-a                        111111111111111SUIT:f9271702-4 - AT 1302* PRO          000000000058333000001000010000023102025000000000000000           0000    01                            
0010001300018Q 011111111111111111SUIT:f9271702-4 - AT 1302* PROCESSO 1000Rua Exemplo, 123                        Centro         Sao Paulo           01001000SP                                                                            000000
0010001300019P 010010001 000000000001 f8112842-4b71-461d-8                        111111111111111SUIT:f8112842-4 - Hoepers: 6 p          000000000045000000001000010000023102025000000000000000           0000    01                            
0010001300019Q 011111111111111111SUIT:f8112842-4 - Hoepers: 6 parcelas deRua Exemplo, 123                        Centro         Sao Paulo           01001000SP                                                                            000000
0010001300020P 010010001 000000000001 f17d84d0-ec70-45c2-9                        111111111111111SUIT:f17d84d0-e - 283067 50002          000000000050000000001000010000023102025000000000000000           0000    01                            
0010001300020Q 011111111111111111SUIT:f17d84d0-e - 283067 5000243-64.2018Rua Exemplo, 123                        Centro         Sao Paulo           01001000SP                                                                            000000
0010001300021P 010010001 000000000001 f401b47f-2067-4bbb-a                        111111111111111SUIT:f401b47f-2 - SUIT: 365419          000000000025000000001000010000023102025000000000000000           0000    01                            
0010001300021Q 011111111111111111SUIT:f401b47f-2 - SUIT: 3654190 N° ProceRua Exemplo, 123                        Centro         Sao Paulo           01001000SP                                                                            000000
0010001300022P 010010001 000000000001 fc456a7b-af15-4a21-9                        111111111111111SUIT:fc456a7b-a - • Valor bloq          000000000562663000001000010000023102025000000000000000           0000    01                            
0010001300022Q 011111111111111111SUIT:fc456a7b-a - • Valor bloqueado: R$ Rua Exemplo, 123                        Centro         Sao Paulo           01001000SP                                                                            000000
0010001300023P 010010001 000000000001 fdc54ec7-15ff-46d5-8                        111111111111111SUIT:fdc54ec7-1 - Hoepers: 6 p          000000000005000000001000010000023102025000000000000000           0000    01                            
0010001300023Q 011111111111111111SUIT:fdc54ec7-1 - Hoepers: 6 parcelas deRua Exemplo, 123                        Centro         Sao Paulo           01001000SP                                                                            000000
0010001300024P 010010001 000000000001 fe973fa2-6483-4c50-9                        111111111111111SUIT:fe973fa2-6 - SUIT: 365419          000000000025000000001000010000023102025000000000000000           0000    01                            
0010001300024Q 011111111111111111SUIT:fe973fa2-6 - SUIT: 3654190 N° ProceRua Exemplo, 123                        Centro         Sao Paulo           01001000SP                                                                            000000
0010001300025P 010010001 000000000001 ff613b07-8969-4b34-9                        111111111111111SUIT:ff613b07-8 - SUIT: 324554          000000000024907000001000010000023102025000000000000000           0000    01                            
0010001300025Q 011111111111111111SUIT:ff613b07-8 - SUIT: 3245549 N° ProceRua Exemplo, 123                        Centro         Sao Paulo           01001000SP                                                                            000000
0010001300026P 010010001 000000000001 c57fc16f-bcda-45aa-9                        111111111111111SUIT:c57fc16f-b - R$ 33.000.48          000000000003360000001000010000023102025000000000000000           0000    01                            
0010001300026Q 011111111111111111SUIT:c57fc16f-b - R$ 33.000.48 PARCELAS Rua Exemplo, 123                        Centro         Sao Paulo           01001000SP                                                                            000000
0010001300027P 010010001 000000000001 dc6688a9-83de-4662-a                        111111111111111SUIT:dc6688a9-8 - Dossiê:37236          000000000062738000001000010000023102025000000000000000           0000    01                            
0010001300027Q 011111111111111111SUIT:dc6688a9-8 - Dossiê:3723622 N° do pRua Exemplo, 123                        Centro         Sao Paulo           01001000SP                                                                            000000
0010001300028P 010010001 000000000001 e1c05d3e-8c90-4e2f-9                        111111111111111SUIT:e1c05d3e-8 - 251551 50069          000000000008333000001000010000023102025000000000000000           0000    01                            
0010001300028Q 011111111111111111SUIT:e1c05d3e-8 - 251551 5006938-45.2018Rua Exemplo, 123                        Centro         Sao Paulo           01001000SP                                                                            000000
0010001300029P 010010001 000000000001 df965dd6-5e56-4643-8                        111111111111111SUIT:df965dd6-5 - ACORDO Votor          000000000090000000001000010000023102025000000000000000           0000    01                            
0010001300029Q 011111111111111111SUIT:df965dd6-5 - ACORDO Votorantim: 30 Rua Exemplo, 123                        Centro         Sao Paulo           01001000SP                                                                            000000
0010001300030P 010010001 000000000001 e4c2c7bc-a9bd-4f0c-b                        111111111111111SUIT:e4c2c7bc-a - Dossiê: 3675          000000000007211000001000010000023102025000000000000000           0000    01                            
0010001300030Q 011111111111111111SUIT:e4c2c7bc-a - Dossiê: 3675099 N° do Rua Exemplo, 123                        Centro         Sao Paulo           01001000SP                                                                            000000
0010001300031P 010010001 000000000001 e94d57c1-e125-457f-9                        111111111111111SUIT:e94d57c1-e - VALOR TOTAL           000000000035500000001000010000023102025000000000000000           0000    01                            
0010001300031Q 011111111111111111SUIT:e94d57c1-e - VALOR TOTAL R$ 150.000Rua Exemplo, 123                        Centro         Sao Paulo           01001000SP                                                                            000000
0010001300032P 010010001 000000000001 eb6477bf-aefa-413a-9                        111111111111111SUIT:eb6477bf-a - Credi: Entra          000000000045000000001000010000023102025000000000000000           0000    01                            
0010001300032Q 011111111111111111SUIT:eb6477bf-a - Credi: Entrada de R$ 3Rua Exemplo, 123                        Centro         Sao Paulo           01001000SP                                                                            000000
0010001300033P 010010001 000000000001 bc92f1a7-4335-4305-9                        111111111111111SUIT:bc92f1a7-4 - SUIT 243910           000000000021452000001000010000023102025000000000000000           0000    01                            
0010001300033Q 011111111111111111SUIT:bc92f1a7-4 - SUIT 243910 PROCESSO: Rua Exemplo, 123                        Centro         Sao Paulo           01001000SP                                                                            000000
0010001300034P 010010001 000000000001 bce647a1-1f35-4f41-8                        111111111111111SUIT:bce647a1-1 - • Valor bloq          000000005142665000001000010000023102025000000000000000           0000    01                            
0010001300034Q 011111111111111111SUIT:bce647a1-1 - • Valor bloqueado: R$ Rua Exemplo, 123                        Centro         Sao Paulo           01001000SP                                                                            000000
0010001300035P 010010001 000000000001 ba790c2c-dced-4949-8                        111111111111111SUIT:ba790c2c-d - • Valor bloq          000000000062517000001000010000023102025000000000000000           0000    01                            
0010001300035Q 011111111111111111SUIT:ba790c2c-d - • Valor bloqueado: R$ Rua Exemplo, 123                        Centro         Sao Paulo           01001000SP                                                                            000000
0010001300036P 010010001 000000000001 bae4663c-d666-4730-a                        111111111111111SUIT:bae4663c-d - SUIT: 365419          000000000025000000001000010000023102025000000000000000           0000    01                            
0010001300036Q 011111111111111111SUIT:bae4663c-d - SUIT: 3654190 N° ProceRua Exemplo, 123                        Centro         Sao Paulo           01001000SP                                                                            000000
0010001300037P 010010001 000000000001 bbc4639f-af45-48b8-9                        111111111111111SUIT:bbc4639f-a - 459743 10193          000000000044243000001000010000023102025000000000000000           0000    01                            
0010001300037Q 011111111111111111SUIT:bbc4639f-a - 459743 1019337-11.2021Rua Exemplo, 123                        Centro         Sao Paulo           01001000SP                                                                            000000
0010001300038P 010010001 000000000001 bf3b973e-d9bc-497b-9                        111111111111111SUIT:bf3b973e-d - 243301 00100          000000000023505000001000010000023102025000000000000000           0000    01                            
0010001300038Q 011111111111111111SUIT:bf3b973e-d - 243301 0010075-19.2015Rua Exemplo, 123                        Centro         Sao Paulo           01001000SP                                                                            000000
0010001300039P 010010001 000000000001 c19d5a08-da2f-40f8-b                        111111111111111SUIT:c19d5a08-d - Dossiê:37047          000000000012954000001000010000023102025000000000000000           0000    01                            
0010001300039Q 011111111111111111SUIT:c19d5a08-d - Dossiê:3704768 N° do pRua Exemplo, 123                        Centro         Sao Paulo           01001000SP                                                                            000000
0010001300040P 010010001 000000000001 abdf069d-5cbe-4c79-8                        111111111111111SUIT:abdf069d-5 - PASTA: 33326          000000000022488000001000010000023102025000000000000000           0000    01                            
0010001300040Q 011111111111111111SUIT:abdf069d-5 - PASTA: 3332682 PROCESSRua Exemplo, 123                        Centro         Sao Paulo           01001000SP                                                                            000000
0010001300041P 010010001 000000000001 ac8156ea-7ce2-436c-8                        111111111111111SUIT:ac8156ea-7 - ALVARÁ DE HO          000000000005915000001000010000023102025000000000000000           0000    01                            
0010001300041Q 011111111111111111SUIT:ac8156ea-7 - ALVARÁ DE HONORÁRIOS PRua Exemplo, 123                        Centro         Sao Paulo           01001000SP                                                                            000000
0010001300042P 010010001 000000000001 ad16849c-2699-4938-8                        111111111111111SUIT:ad16849c-2 - 147174 00141          000000000016300000001000010000023102025000000000000000           0000    01                            
0010001300042Q 011111111111111111SUIT:ad16849c-2 - 147174 0014116-13.2013Rua Exemplo, 123                        Centro         Sao Paulo           01001000SP                                                                            000000
0010001300043P 010010001 000000000001 a294e8e8-bd69-45a6-a                        111111111111111SUIT:a294e8e8-b - ACORDO Votor          000000000020000000001000010000023102025000000000000000           0000    01                            
0010001300043Q 011111111111111111SUIT:a294e8e8-b - ACORDO Votorantim: 30 Rua Exemplo, 123                        Centro         Sao Paulo           01001000SP                                                                            000000
0010001300044P 010010001 000000000001 aadfbfbb-5a23-44b9-8                        111111111111111SUIT:aadfbfbb-5 - SUIT: 324570          000000000003322000001000010000023102025000000000000000           0000    01                            
0010001300044Q 011111111111111111SUIT:aadfbfbb-5 - SUIT: 3245709 PROCESSORua Exemplo, 123                        Centro         Sao Paulo           01001000SP                                                                            000000
0010001300045P 010010001 000000000001 9b16cfe6-365f-4e5d-a                        111111111111111SUIT:9b16cfe6-3 - VC - 407* PR          000000000051053000001000010000023102025000000000000000           0000    01                            
0010001300045Q 011111111111111111SUIT:9b16cfe6-3 - VC - 407* PROCESSO 030Rua Exemplo, 123                        Centro         Sao Paulo           01001000SP                                                                            000000
0010001300046P 010010001 000000000001 91f1c1ac-8a0d-4ec9-b                        111111111111111SUIT:91f1c1ac-8 - SUIT: 365404          000000000034326000001000010000023102025000000000000000           0000    01                            
0010001300046Q 011111111111111111SUIT:91f1c1ac-8 - SUIT: 3654048 N° ProceRua Exemplo, 123                        Centro         Sao Paulo           01001000SP                                                                            000000
0010001300047P 010010001 000000000001 978dd6bd-f3fc-4f90-b                        111111111111111SUIT:978dd6bd-f - SUIT: 330125          000000000003000000001000010000023102025000000000000000           0000    01                            
0010001300047Q 011111111111111111SUIT:978dd6bd-f - SUIT: 3301255 N° ProceRua Exemplo, 123                        Centro         Sao Paulo           01001000SP                                                                            000000
0010001300048P 010010001 000000000001 824cbe07-02e7-4076-8                        111111111111111SUIT:824cbe07-0 - SUIT: 353603          000000000030000000001000010000023102025000000000000000           0000    01                            
0010001300048Q 011111111111111111SUIT:824cbe07-0 - SUIT: 3536038 N° ProceRua Exemplo, 123                        Centro         Sao Paulo           01001000SP                                                                            000000
0010001300049P 010010001 000000000001 7c37f922-c2ae-4ae6-b                        111111111111111SUIT:7c37f922-c - 244789 10025          000000000025000000001000010000023102025000000000000000           0000    01                            
0010001300049Q 011111111111111111SUIT:7c37f922-c - 244789 1002549-18.2018Rua Exemplo, 123                        Centro         Sao Paulo           01001000SP                                                                            000000
0010001300050P 010010001 000000000001 7f9a0f7b-7ab2-479b-b                        111111111111111SUIT:7f9a0f7b-7 - 269801 01046          000000000200000000001000010000023102025000000000000000           0000    01                            
0010001300050Q 011111111111111111SUIT:7f9a0f7b-7 - 269801 0104698-11.2018Rua Exemplo, 123                        Centro         Sao Paulo           01001000SP                                                                            000000
0010001300051P 010010001 000000000001 5f22ac4f-19f2-4f69-8                        111111111111111SUIT:5f22ac4f-1 - 369405 60932          000000000062500000001000010000023102025000000000000000           0000    01                            
0010001300051Q 011111111111111111SUIT:5f22ac4f-1 - 369405 6093232-30.2015Rua Exemplo, 123                        Centro         Sao Paulo           01001000SP                                                                            000000
0010001300052P 010010001 000000000001 5fadc237-f529-49f3-a                        111111111111111SUIT:5fadc237-f - Suit: 140696          000000000792137000001000010000023102025000000000000000           0000    01                            
0010001300052Q 011111111111111111SUIT:5fadc237-f - Suit: 140696 Alvará - Rua Exemplo, 123                        Centro         Sao Paulo           01001000SP                                                                            000000
0010001300053P 010010001 000000000001 60836aa6-49c6-4865-9                        111111111111111SUIT:60836aa6-4 - PASTA: 33326          000000000022488000001000010000023102025000000000000000           0000    01                            
0010001300053Q 011111111111111111SUIT:60836aa6-4 - PASTA: 3332682 PROCESSRua Exemplo, 123                        Centro         Sao Paulo           01001000SP                                                                            000000
0010001300054P 010010001 000000000001 60a90966-d9d1-4daf-b                        111111111111111SUIT:60a90966-d - VC - 348* pr          000000000028692000001000010000023102025000000000000000           0000    01                            
0010001300054Q 011111111111111111SUIT:60a90966-d - VC - 348* processo 030Rua Exemplo, 123                        Centro         Sao Paulo           01001000SP                                                                            000000
0010001300055P 010010001 000000000001 717ea149-3515-4925-a                        111111111111111SUIT:717ea149-3 - Dossiê: 3855          000000000043983000001000010000023102025000000000000000           0000    01                            
0010001300055Q 011111111111111111SUIT:717ea149-3 - Dossiê: 3855761 N° do Rua Exemplo, 123                        Centro         Sao Paulo           01001000SP                                                                            000000
0010001300056P 010010001 000000000001 4e3880a6-4fe7-4644-8                        111111111111111SUIT:4e3880a6-4 - SUIT: 367505          000000000115000000001000010000023102025000000000000000           0000    01                            
0010001300056Q 011111111111111111SUIT:4e3880a6-4 - SUIT: 3675051 N° ProceRua Exemplo, 123                        Centro         Sao Paulo           01001000SP                                                                            000000
0010001300057P 010010001 000000000001 4d60ca5a-3c2b-4ee5-8                        111111111111111SUIT:4d60ca5a-3 - SUIT: 330125          000000000027000000001000010000023102025000000000000000           0000    01                            
0010001300057Q 011111111111111111SUIT:4d60ca5a-3 - SUIT: 3301255 N° ProceRua Exemplo, 123                        Centro         Sao Paulo           01001000SP                                                                            000000
0010001300058P 010010001 000000000001 3251788d-4c29-43b5-8                        111111111111111SUIT:3251788d-4 - Credi: Entra          000000000005000000001000010000023102025000000000000000           0000    01                            
0010001300058Q 011111111111111111SUIT:3251788d-4 - Credi: Entrada de R$ 3Rua Exemplo, 123                        Centro         Sao Paulo           01001000SP                                                                            000000
0010001300059P 010010001 000000000001 39c18f31-4d3a-42f9-a                        111111111111111SUIT:39c18f31-4 - ALVARÁ Proce          000000000053249000001000010000023102025000000000000000           0000    01                            
0010001300059Q 011111111111111111SUIT:39c18f31-4 - ALVARÁ Processo: 10097Rua Exemplo, 123                        Centro         Sao Paulo           01001000SP                                                                            000000
0010001300060P 010010001 000000000001 3da48c5e-3a5d-49be-b                        111111111111111SUIT:3da48c5e-3 - Pasta: SANT           000000000140822000001000010000023102025000000000000000           0000    01                            
0010001300060Q 011111111111111111SUIT:3da48c5e-3 - Pasta: SANT - 209 ProcRua Exemplo, 123                        Centro         Sao Paulo           01001000SP                                                                            000000
0010001300061P 010010001 000000000001 3da828a6-368e-4f59-9                        111111111111111SUIT:3da828a6-3 - AT - 556 ACO          000000000005360000001000010000023102025000000000000000           0000    01                            
0010001300061Q 011111111111111111SUIT:3da828a6-3 - AT - 556 ACORDO VALOR Rua Exemplo, 123                        Centro         Sao Paulo           01001000SP                                                                            000000
0010001300062P 010010001 000000000001 3e89c872-2e2e-4dfa-8                        111111111111111SUIT:3e89c872-2 - 282586 10507          000000000031700000001000010000023102025000000000000000           0000    01                            
0010001300062Q 011111111111111111SUIT:3e89c872-2 - 282586 1050789-53.2018Rua Exemplo, 123                        Centro         Sao Paulo           01001000SP                                                                            000000
0010001300063P 010010001 000000000001 43823495-95b0-4f5f-8                        111111111111111SUIT:43823495-9 - Valor do cré          000000000003838000001000010000023102025000000000000000           0000    01                            
0010001300063Q 011111111111111111SUIT:43823495-9 - Valor do crédito com oRua Exemplo, 123                        Centro         Sao Paulo           01001000SP                                                                            000000
0010001300064P 010010001 000000000001 4500ec2c-2018-4e24-9                        111111111111111SUIT:4500ec2c-2 - SUIT: 353603          000000000030000000001000010000023102025000000000000000           0000    01                            
0010001300064Q 011111111111111111SUIT:4500ec2c-2 - SUIT: 3536038 N° ProceRua Exemplo, 123                        Centro         Sao Paulo           01001000SP                                                                            000000
0010001300065P 010010001 000000000001 22e17eea-cd6e-4270-8                        111111111111111SUIT:22e17eea-c - #LS011002 -           000000000026000000001000010000023102025000000000000000           0000    01                            
0010001300065Q 011111111111111111SUIT:22e17eea-c - #LS011002 - RealizaçãoRua Exemplo, 123                        Centro         Sao Paulo           01001000SP                                                                            000000
0010001300066P 010010001 000000000001 13b706d3-c5ec-4a81-8                        111111111111111SUIT:13b706d3-c - 491930 10067          000000000043655000001000010000023102025000000000000000           0000    01                            
0010001300066Q 011111111111111111SUIT:13b706d3-c - 491930 1006798-19.2016Rua Exemplo, 123                        Centro         Sao Paulo           01001000SP                                                                            000000
0010001300067P 010010001 000000000001 0c3aeb21-29f4-49ac-8                        111111111111111SUIT:0c3aeb21-2 - R$ 33.000.48          000000000033612000001000010000023102025000000000000000           0000    01                            
0010001300067Q 011111111111111111SUIT:0c3aeb21-2 - R$ 33.000.48 PARCELAS Rua Exemplo, 123                        Centro         Sao Paulo           01001000SP                                                                            000000
0010001300068P 010010001 000000000001 0c4345f0-24ba-4081-8                        111111111111111SUIT:0c4345f0-2 - SUIT: 365419          000000000025000000001000010000023102025000000000000000           0000    01                            
0010001300068Q 011111111111111111SUIT:0c4345f0-2 - SUIT: 3654190 N° ProceRua Exemplo, 123                        Centro         Sao Paulo           01001000SP                                                                            000000
0010001300069P 010010001 000000000001 0ebe8d06-7002-499a-8                        111111111111111SUIT:0ebe8d06-7 - 374614 80019          000000000040000000001000010000023102025000000000000000           0000    01                            
0010001300069Q 011111111111111111SUIT:0ebe8d06-7 - 374614 8001973-47.2021Rua Exemplo, 123                        Centro         Sao Paulo           01001000SP                                                                            000000
0010001300070P 010010001 000000000001 021746c3-b9dc-47a6-a                        111111111111111SUIT:021746c3-b - 275352 08126          000000000036000000001000010000023102025000000000000000           0000    01                            
0010001300070Q 011111111111111111SUIT:021746c3-b - 275352 0812628-48.2018Rua Exemplo, 123                        Centro         Sao Paulo           01001000SP                                                                            000000
0010001300071P 010010001 000000000001 0528ed75-84ad-444b-9                        111111111111111SUIT:0528ed75-8 - PASTA: 33326          000000000022488000001000010000023102025000000000000000           0000    01                            
0010001300071Q 011111111111111111SUIT:0528ed75-8 - PASTA: 3332682 PROCESSRua Exemplo, 123                        Centro         Sao Paulo           01001000SP                                                                            000000
0010001300072P 010010001 000000000001 0b5ee74a-8bed-44d3-8                        111111111111111SUIT:0b5ee74a-8 - 147707 10331          000000000075100000001000010000023102025000000000000000           0000    01                            
0010001300072Q 011111111111111111SUIT:0b5ee74a-8 - 147707 1033199-92.2015Rua Exemplo, 123                        Centro         Sao Paulo           01001000SP                                                                            000000
0010001300073P 010010001 000000000001 034543b4-c4dc-4d47-a                        111111111111111SUIT:034543b4-c - SUIT: 330695          000000000006000000001000010000023102025000000000000000           0000    01                            
0010001300073Q 011111111111111111SUIT:034543b4-c - SUIT: 3306958 N° ProceRua Exemplo, 123                        Centro         Sao Paulo           01001000SP                                                                            000000
0010001300074P 010010001 000000000001 310450a7-2759-437f-b                        111111111111111SUIT:310450a7-2 - SUIT: 334155          000000000010800000001000010000023102025000000000000000           0000    01                            
0010001300074Q 011111111111111111SUIT:310450a7-2 - SUIT: 3341552 N° ProceRua Exemplo, 123                        Centro         Sao Paulo           01001000SP                                                                            000000
0010001300075P 010010001 000000000001 299f9231-4b3f-479a-a                        111111111111111SUIT:299f9231-4 - 243124 10052          000000000010000000001000010000023102025000000000000000           0000    01                            
0010001300075Q 011111111111111111SUIT:299f9231-4 - 243124 1005262-78.2018Rua Exemplo, 123                        Centro         Sao Paulo           01001000SP                                                                            000000
0010001300076P 010010001 000000000001 2b18a564-e2f2-46f3-a                        111111111111111SUIT:2b18a564-e - SUIT: 338147          000000000100000000001000010000023102025000000000000000           0000    01                            
0010001300076Q 011111111111111111SUIT:2b18a564-e - SUIT: 3381471 N° ProceRua Exemplo, 123                        Centro         Sao Paulo           01001000SP                                                                            000000
0010001300077P 010010001 000000000001 476e7a22-c5e5-4f4b-8                        111111111111111SUIT:476e7a22-c - SUIT: 333116          000000000041220000001000010000023102025000000000000000           0000    01                            
0010001300077Q 011111111111111111SUIT:476e7a22-c - SUIT: 3331164 N° ProceRua Exemplo, 123                        Centro         Sao Paulo           01001000SP                                                                            000000
0010001300078P 010010001 000000000001 3d3299e1-a7f0-4fa0-8                        111111111111111SUIT:3d3299e1-a - Dossiê: AGIL          000000000100262000001000010000023102025000000000000000           0000    01                            
0010001300078Q 011111111111111111SUIT:3d3299e1-a - Dossiê: AGILITI - 012 Rua Exemplo, 123                        Centro         Sao Paulo           01001000SP                                                                            000000
0010001300079P 010010001 000000000001 38bb3f65-3fc8-4a1c-a                        111111111111111SUIT:38bb3f65-3 - NÚMERO DA PA          000000000610000000001000010000023102025000000000000000           0000    01                            
0010001300079Q 011111111111111111SUIT:38bb3f65-3 - NÚMERO DA PASTA: C6 - Rua Exemplo, 123                        Centro         Sao Paulo           01001000SP                                                                            000000
0010001300080P 010010001 000000000001 32750fd0-27a8-4d92-b                        111111111111111SUIT:32750fd0-2 - Dossiê: 3765          000000000258189000001000010000023102025000000000000000           0000    01                            
0010001300080Q 011111111111111111SUIT:32750fd0-2 - Dossiê: 3765093 N° do Rua Exemplo, 123                        Centro         Sao Paulo           01001000SP                                                                            000000
0010001300081P 010010001 000000000001 4bc97e16-737a-482c-b                        111111111111111SUIT:4bc97e16-7 - 273674 07140          000000000050000000001000010000023102025000000000000000           0000    01                            
0010001300081Q 011111111111111111SUIT:4bc97e16-7 - 273674 0714049-42.2016Rua Exemplo, 123                        Centro         Sao Paulo           01001000SP                                                                            000000
0010001300082P 010010001 000000000001 48ac85ae-371f-433a-8                        111111111111111SUIT:48ac85ae-3 - Dossiê:38566          000000000008362000001000010000023102025000000000000000           0000    01                            
0010001300082Q 011111111111111111SUIT:48ac85ae-3 - Dossiê:3856610 N° do pRua Exemplo, 123                        Centro         Sao Paulo           01001000SP                                                                            000000
0010001300083P 010010001 000000000001 49073c1c-a359-4686-9                        111111111111111SUIT:49073c1c-a - PASTA: 32513          000000000004713000001000010000023102025000000000000000           0000    01                            
0010001300083Q 011111111111111111SUIT:49073c1c-a - PASTA: 3251382 PROCESSRua Exemplo, 123                        Centro         Sao Paulo           01001000SP                                                                            000000
0010001300084P 010010001 000000000001 4e806f4a-78ad-4919-9                        111111111111111SUIT:4e806f4a-7 - SUIT: 334155          000000000059600000001000010000023102025000000000000000           0000    01                            
0010001300084Q 011111111111111111SUIT:4e806f4a-7 - SUIT: 3341552 N° ProceRua Exemplo, 123                        Centro         Sao Paulo           01001000SP                                                                            000000
0010001300085P 010010001 000000000001 57d78e9f-9812-4e8e-8                        111111111111111SUIT:57d78e9f-9 - 273456 07069          000000000052000000001000010000023102025000000000000000           0000    01                            
0010001300085Q 011111111111111111SUIT:57d78e9f-9 - 273456 0706968-63.2019Rua Exemplo, 123                        Centro         Sao Paulo           01001000SP                                                                            000000
0010001300086P 010010001 000000000001 58eee282-247e-477f-a                        111111111111111SUIT:58eee282-2 - SUIT: 330695          000000000037770000001000010000023102025000000000000000           0000    01                            
0010001300086Q 011111111111111111SUIT:58eee282-2 - SUIT: 3306958 N° ProceRua Exemplo, 123                        Centro         Sao Paulo           01001000SP                                                                            000000
0010001300087P 010010001 000000000001 5f5b3039-54b9-415c-a                        111111111111111SUIT:5f5b3039-5 - 280919 10122          000000000040000000001000010000023102025000000000000000           0000    01                            
0010001300087Q 011111111111111111SUIT:5f5b3039-5 - 280919 1012222-58.2018Rua Exemplo, 123                        Centro         Sao Paulo           01001000SP                                                                            000000
0010001300088P 010010001 000000000001 6163891f-cba0-4ab4-8                        111111111111111SUIT:6163891f-c - 177021 00246          000000000100000000001000010000023102025000000000000000           0000    01                            
0010001300088Q 011111111111111111SUIT:6163891f-c - 177021 0024646-26.2018Rua Exemplo, 123                        Centro         Sao Paulo           01001000SP                                                                            000000
0010001300089P 010010001 000000000001 7dd76311-7243-4ac1-8                        111111111111111SUIT:7dd76311-7 - 266064 00087          000000000054000000001000010000023102025000000000000000           0000    01                            
0010001300089Q 011111111111111111SUIT:7dd76311-7 - 266064 0008757-34.2017Rua Exemplo, 123                        Centro         Sao Paulo           01001000SP                                                                            000000
0010001300090P 010010001 000000000001 88d6a6fc-58ba-4628-a                        111111111111111SUIT:88d6a6fc-5 - PASTA: 32513          000000000047127000001000010000023102025000000000000000           0000    01                            
0010001300090Q 011111111111111111SUIT:88d6a6fc-5 - PASTA: 3251382 PROCESSRua Exemplo, 123                        Centro         Sao Paulo           01001000SP                                                                            000000
0010001300091P 010010001 000000000001 994675de-2848-4806-8                        111111111111111SUIT:994675de-2 - 2440152 1006          000000000027262000001000010000023102025000000000000000           0000    01                            
0010001300091Q 011111111111111111SUIT:994675de-2 - 2440152 1006100-08.201Rua Exemplo, 123                        Centro         Sao Paulo           01001000SP                                                                            000000
0010001300092P 010010001 000000000001 b053e47f-e8de-482a-a                        111111111111111SUIT:b053e47f-e - PASTA: 33058          000000000025883000001000010000023102025000000000000000           0000    01                            
0010001300092Q 011111111111111111SUIT:b053e47f-e - PASTA: 3305839 PROCESSRua Exemplo, 123                        Centro         Sao Paulo           01001000SP                                                                            000000
0010001300093P 010010001 000000000001 c08ac5fb-0a73-42ef-9                        111111111111111SUIT:c08ac5fb-0 - 278727 10034          000000000041667000001000010000023102025000000000000000           0000    01                            
0010001300093Q 011111111111111111SUIT:c08ac5fb-0 - 278727 1003418-38.2019Rua Exemplo, 123                        Centro         Sao Paulo           01001000SP                                                                            000000
0010001300094P 010010001 000000000001 bf8b5640-c08c-4cec-b                        111111111111111SUIT:bf8b5640-c - Dossiê: 3404          000000000058700000001000010000023102025000000000000000           0000    01                            
0010001300094Q 011111111111111111SUIT:bf8b5640-c - Dossiê: 3404202 N° do Rua Exemplo, 123                        Centro         Sao Paulo           01001000SP                                                                            000000
0010001300095P 010010001 000000000001 bb46ab00-2fae-4502-8                        111111111111111SUIT:bb46ab00-2 - Suit: 518059          000000000160819000001000010000023102025000000000000000           0000    01                            
0010001300095Q 011111111111111111SUIT:bb46ab00-2 - Suit: 518059 Alvará - Rua Exemplo, 123                        Centro         Sao Paulo           01001000SP                                                                            000000
0010001300096P 010010001 000000000001 e0191745-e63f-43be-8                        111111111111111SUIT:e0191745-e - PASTA: 33791          000000000002911000001000010000023102025000000000000000           0000    01                            
0010001300096Q 011111111111111111SUIT:e0191745-e - PASTA: 3379122 PROCESSRua Exemplo, 123                        Centro         Sao Paulo           01001000SP                                                                            000000
0010001300097P 010010001 000000000001 e2090d69-ec20-4b28-8                        111111111111111SUIT:e2090d69-e - PASTA: 33791          000000000026199000001000010000023102025000000000000000           0000    01                            
0010001300097Q 011111111111111111SUIT:e2090d69-e - PASTA: 3379122 PROCESSRua Exemplo, 123                        Centro         Sao Paulo           01001000SP                                                                            000000
0010001300098P 010010001 000000000001 ddba4371-648c-4286-b                        111111111111111SUIT:ddba4371-6 - PASTA: 33326          000000000002498000001000010000023102025000000000000000           0000    01                            
0010001300098Q 011111111111111111SUIT:ddba4371-6 - PASTA: 3332682 PROCESSRua Exemplo, 123                        Centro         Sao Paulo           01001000SP                                                                            000000
0010001300099P 010010001 000000000001 d25fd6cc-e5f1-4ee1-8                        111111111111111SUIT:d25fd6cc-e - SUIT: 334155          000000000029800000001000010000023102025000000000000000           0000    01                            
0010001300099Q 011111111111111111SUIT:d25fd6cc-e - SUIT: 3341552 N° ProceRua Exemplo, 123                        Centro         Sao Paulo           01001000SP                                                                            000000
0010001300100P 010010001 000000000001 d6bc51bb-774c-4089-b                        111111111111111SUIT:d6bc51bb-7 - SUIT: 324585          000000000040000000001000010000023102025000000000000000           0000    01                            
0010001300100Q 011111111111111111SUIT:d6bc51bb-7 - SUIT: 3245851 N° ProceRua Exemplo, 123                        Centro         Sao Paulo           01001000SP                                                                            000000
0010001300101P 010010001 000000000001 fc05262a-3a70-4970-a                        111111111111111SUIT:fc05262a-3 - SUIT: 334155          000000000029800000001000010000023102025000000000000000           0000    01                            
0010001300101Q 011111111111111111SUIT:fc05262a-3 - SUIT: 3341552 N° ProceRua Exemplo, 123                        Centro         Sao Paulo           01001000SP                                                                            000000
0010001300102P 010010001 000000000001 d9e7f1ec-4530-4722-9                        111111111111111SUIT:d9e7f1ec-4 - DILIGENCIA P          000000000010000000001000010000023102025000000000000000           0000    01                            
0010001300102Q 011111111111111111SUIT:d9e7f1ec-4 - DILIGENCIA PARA REALIZRua Exemplo, 123                        Centro         Sao Paulo           01001000SP                                                                            000000
0010001300103P 010010001 000000000001 3ff2b269-490f-43d1-8                        111111111111111SUIT:3ff2b269-4 - DILIGENCIA P          000000000010000000001000010000023102025000000000000000           0000    01                            
0010001300103Q 011111111111111111SUIT:3ff2b269-4 - DILIGENCIA PARA HABILIRua Exemplo, 123                        Centro         Sao Paulo           01001000SP                                                                            000000
0010001300104P 010010001 000000000001 41467f7e-6d53-4b40-b                        111111111111111SUIT:41467f7e-6 - 459920 50142          000000000049500000001000010000023102025000000000000000           0000    01                            
0010001300104Q 011111111111111111SUIT:41467f7e-6 - 459920 5014200-85.2021Rua Exemplo, 123                        Centro         Sao Paulo           01001000SP                                                                            000000
0010001300105P 010010001 000000000001 325c9bee-6b81-4de3-9                        111111111111111SUIT:325c9bee-6 - Dossiê: 4070          000000000136139000001000010000023102025000000000000000           0000    01                            
0010001300105Q 011111111111111111SUIT:325c9bee-6 - Dossiê: 4070215 N° do Rua Exemplo, 123                        Centro         Sao Paulo           01001000SP                                                                            000000
0010001300106P 010010001 000000000001 3761f7ad-e51e-40f7-a                        111111111111111SUIT:3761f7ad-e - Proc. 100254          000000000062500000001000010000023102025000000000000000           0000    01                            
0010001300106Q 011111111111111111SUIT:3761f7ad-e - Proc. 1002546-75.2023.Rua Exemplo, 123                        Centro         Sao Paulo           01001000SP                                                                            000000
0010001300107P 010010001 000000000001 3b3c3de7-6295-45e8-a                        111111111111111SUIT:3b3c3de7-6 - SUIT: 328318          000000000083596000001000010000023102025000000000000000           0000    01                            
0010001300107Q 011111111111111111SUIT:3b3c3de7-6 - SUIT: 3283186 N° ProceRua Exemplo, 123                        Centro         Sao Paulo           01001000SP                                                                            000000
0010001300108P 010010001 000000000001 3c77d159-0a30-4791-8                        111111111111111SUIT:3c77d159-0 - PASTA: 37066          000000000094366000001000010000023102025000000000000000           0000    01                            
0010001300108Q 011111111111111111SUIT:3c77d159-0 - PASTA: 3706649 PROCESSRua Exemplo, 123                        Centro         Sao Paulo           01001000SP                                                                            000000
0010001300109P 010010001 000000000001 5aa6681f-37e8-45f4-b                        111111111111111SUIT:5aa6681f-3 - SUIT: 374067          000000000061200000001000010000023102025000000000000000           0000    01                            
0010001300109Q 011111111111111111SUIT:5aa6681f-3 - SUIT: 3740673 N° ProceRua Exemplo, 123                        Centro         Sao Paulo           01001000SP                                                                            000000
0010001300110P 010010001 000000000001 5d22b344-3726-4fbd-a                        111111111111111SUIT:5d22b344-3 - 541151 00674          000000000009407000001000010000023102025000000000000000           0000    01                            
0010001300110Q 011111111111111111SUIT:5d22b344-3 - 541151 0067463-04.2024Rua Exemplo, 123                        Centro         Sao Paulo           01001000SP                                                                            000000
0010001300111P 010010001 000000000001 5dbf81f2-9185-4638-8                        111111111111111SUIT:5dbf81f2-9 - 541151 00674          000000000009407000001000010000023102025000000000000000           0000    01                            
0010001300111Q 011111111111111111SUIT:5dbf81f2-9 - 541151 0067463-04.2024Rua Exemplo, 123                        Centro         Sao Paulo           01001000SP                                                                            000000
0010001300112P 010010001 000000000001 487fb18f-c444-4154-b                        111111111111111SUIT:487fb18f-c - SUIT: 340507          000000000003488000001000010000023102025000000000000000           0000    01                            
0010001300112Q 011111111111111111SUIT:487fb18f-c - SUIT: 3405079 N° ProceRua Exemplo, 123                        Centro         Sao Paulo           01001000SP                                                                            000000
0010001300113P 010010001 000000000001 31f7691a-7521-4b07-b                        111111111111111SUIT:31f7691a-7 - PASTA: 33550          000000000099060000001000010000023102025000000000000000           0000    01                            
0010001300113Q 011111111111111111SUIT:31f7691a-7 - PASTA: 3355016 PROCESSRua Exemplo, 123                        Centro         Sao Paulo           01001000SP                                                                            000000
0010001300114P 010010001 000000000001 2c6cea91-7c6b-4de5-b                        111111111111111SUIT:2c6cea91-7 - NX 1274166*           000000000500000000001000010000023102025000000000000000           0000    01                            
0010001300114Q 011111111111111111SUIT:2c6cea91-7 - NX 1274166* Proc. 1002Rua Exemplo, 123                        Centro         Sao Paulo           01001000SP                                                                            000000
0010001300115P 010010001 000000000001 1d564073-3064-4fa4-9                        111111111111111SUIT:1d564073-3 - Processo: 50          000000000066667000001000010000023102025000000000000000           0000    01                            
0010001300115Q 011111111111111111SUIT:1d564073-3 - Processo: 5001478-28.2Rua Exemplo, 123                        Centro         Sao Paulo           01001000SP                                                                            000000
0010001300116P 010010001 000000000001 1744e3a0-255d-46f6-a                        111111111111111SUIT:1744e3a0-2 - PASTA: 33547          000000000040692000001000010000023102025000000000000000           0000    01                            
0010001300116Q 011111111111111111SUIT:1744e3a0-2 - PASTA: 3354779 PROCESSRua Exemplo, 123                        Centro         Sao Paulo           01001000SP                                                                            000000
0010001300117P 010010001 000000000001 1801cab8-f73c-4046-b                        111111111111111SUIT:1801cab8-f - 176519 00103          000000000069203000001000010000023102025000000000000000           0000    01                            
0010001300117Q 011111111111111111SUIT:1801cab8-f - 176519 0010385-92.2023Rua Exemplo, 123                        Centro         Sao Paulo           01001000SP                                                                            000000
0010001300118P 010010001 000000000001 013e92ac-51d7-4302-8                        111111111111111SUIT:013e92ac-5 - 263633 00014          000000000022034000001000010000023102025000000000000000           0000    01                            
0010001300118Q 011111111111111111SUIT:013e92ac-5 - 263633 0001461-20.2018Rua Exemplo, 123                        Centro         Sao Paulo           01001000SP                                                                            000000
0010001300119P 010010001 000000000001 098741e3-a9a9-44c9-9                        111111111111111SUIT:098741e3-a - 167200 10122          000000000069500000001000010000023102025000000000000000           0000    01                            
0010001300119Q 011111111111111111SUIT:098741e3-a - 167200 1012216-59.2015Rua Exemplo, 123                        Centro         Sao Paulo           01001000SP                                                                            000000
0010001300120P 010010001 000000000001 1367cefb-e68d-497e-8                        111111111111111SUIT:1367cefb-e - SUIT: 358836          000000000015000000001000010000023102025000000000000000           0000    01                            
0010001300120Q 011111111111111111SUIT:1367cefb-e - SUIT: 3588360 N° ProceRua Exemplo, 123                        Centro         Sao Paulo           01001000SP                                                                            000000
0010001300121P 010010001 000000000001 0b4e1fc7-c191-495d-8                        111111111111111SUIT:0b4e1fc7-c - Dossiê: 4102          000000000112869000001000010000023102025000000000000000           0000    01                            
0010001300121Q 011111111111111111SUIT:0b4e1fc7-c - Dossiê: 4102983 N° do Rua Exemplo, 123                        Centro         Sao Paulo           01001000SP                                                                            000000
0010001300122P 010010001 000000000001 c03321b7-693f-4ae6-8                        111111111111111SUIT:c03321b7-6 - 279663 10059          000000000037900000001000010000023102025000000000000000           0000    01                            
0010001300122Q 011111111111111111SUIT:c03321b7-6 - 279663 1005996-20.2018Rua Exemplo, 123                        Centro         Sao Paulo           01001000SP                                                                            000000
0010001300123P 010010001 000000000001 b0d1f027-4224-454e-a                        111111111111111SUIT:b0d1f027-4 - RESPONSÁVEL:          000000000050000000001000010000023102025000000000000000           0000    01                            
0010001300123Q 011111111111111111SUIT:b0d1f027-4 - RESPONSÁVEL: ADRIELLY Rua Exemplo, 123                        Centro         Sao Paulo           01001000SP                                                                            000000
0010001300124P 010010001 000000000001 964e9a9a-56b6-494d-9                        111111111111111SUIT:964e9a9a-5 - 246256 10033          000000000028800000001000010000023102025000000000000000           0000    01                            
0010001300124Q 011111111111111111SUIT:964e9a9a-5 - 246256 1003368-64.2018Rua Exemplo, 123                        Centro         Sao Paulo           01001000SP                                                                            000000
0010001300125P 010010001 000000000001 984119a1-c71c-4997-a                        111111111111111SUIT:984119a1-c - 492270 10090          000000000038000000001000010000023102025000000000000000           0000    01                            
0010001300125Q 011111111111111111SUIT:984119a1-c - 492270 1009040-53.2018Rua Exemplo, 123                        Centro         Sao Paulo           01001000SP                                                                            000000
0010001300126P 010010001 000000000001 9f89d497-5195-4e03-9                        111111111111111SUIT:9f89d497-5 - 541151 00674          000000000009407000001000010000023102025000000000000000           0000    01                            
0010001300126Q 011111111111111111SUIT:9f89d497-5 - 541151 0067463-04.2024Rua Exemplo, 123                        Centro         Sao Paulo           01001000SP                                                                            000000
0010001300127P 010010001 000000000001 88dd76c8-aace-4a3b-b                        111111111111111SUIT:88dd76c8-a - 168583 01337          000000000024447000001000010000023102025000000000000000           0000    01                            
0010001300127Q 011111111111111111SUIT:88dd76c8-a - 168583 0133746-53.2017Rua Exemplo, 123                        Centro         Sao Paulo           01001000SP                                                                            000000
0010001300128P 010010001 000000000001 8705f2b6-d8ee-4686-a                        111111111111111SUIT:8705f2b6-d - 284403 50889          000000000013200000001000010000023102025000000000000000           0000    01                            
0010001300128Q 011111111111111111SUIT:8705f2b6-d - 284403 5088949-93.2018Rua Exemplo, 123                        Centro         Sao Paulo           01001000SP                                                                            000000
0010001300129P 010010001 000000000001 8af86514-ada5-4ae8-b                        111111111111111SUIT:8af86514-a - 263088 00006          000000000066700000001000010000023102025000000000000000           0000    01                            
0010001300129Q 011111111111111111SUIT:8af86514-a - 263088 0000668-47.2019Rua Exemplo, 123                        Centro         Sao Paulo           01001000SP                                                                            000000
0010001300130P 010010001 000000000001 7fe6cff3-0dec-4132-b                        111111111111111SUIT:7fe6cff3-0 - Processo: 00          000000000040000000001000010000023102025000000000000000           0000    01                            
0010001300130Q 011111111111111111SUIT:7fe6cff3-0 - Processo: 0007121-45.2Rua Exemplo, 123                        Centro         Sao Paulo           01001000SP                                                                            000000
0010001300131P 010010001 000000000001 81cb4cea-1900-4702-8                        111111111111111SUIT:81cb4cea-1 - TOTAL DO ACO          000000000035555000001000010000023102025000000000000000           0000    01                            
0010001300131Q 011111111111111111SUIT:81cb4cea-1 - TOTAL DO ACORDO: R$ 20Rua Exemplo, 123                        Centro         Sao Paulo           01001000SP                                                                            000000
0010001300132P 010010001 000000000001 60016263-7a03-42be-b                        111111111111111SUIT:60016263-7 - SUIT: 371193          000000000035100000001000010000023102025000000000000000           0000    01                            
0010001300132Q 011111111111111111SUIT:60016263-7 - SUIT: 3711930 N° ProceRua Exemplo, 123                        Centro         Sao Paulo           01001000SP                                                                            000000
0010001300133P 010010001 000000000001 5e7b1c21-ba82-4f73-8                        111111111111111SUIT:5e7b1c21-b - 550753 00122          000000000030000000001000010000023102025000000000000000           0000    01                            
0010001300133Q 011111111111111111SUIT:5e7b1c21-b - 550753 0012260-27.2017Rua Exemplo, 123                        Centro         Sao Paulo           01001000SP                                                                            000000
0010001300134P 010010001 000000000001 715dc2ad-864e-4869-8                        111111111111111SUIT:715dc2ad-8 - Dossiê: 3660          000000000070235000001000010000023102025000000000000000           0000    01                            
0010001300134Q 011111111111111111SUIT:715dc2ad-8 - Dossiê: 3660633 N° do Rua Exemplo, 123                        Centro         Sao Paulo           01001000SP                                                                            000000
0010001300135P 010010001 000000000001 76d82cc4-ae2a-4c95-a                        111111111111111SUIT:76d82cc4-a - Suit: 147520          000000000257770000001000010000023102025000000000000000           0000    01                            
0010001300135Q 011111111111111111SUIT:76d82cc4-a - Suit: 147520 Alvará - Rua Exemplo, 123                        Centro         Sao Paulo           01001000SP                                                                            000000
0010001300136P 010010001 000000000001 786983b3-2b68-412c-8                        111111111111111SUIT:786983b3-2 - SUIT: 374067          000000000006126000001000010000023102025000000000000000           0000    01                            
0010001300136Q 011111111111111111SUIT:786983b3-2 - SUIT: 3740673 N° ProceRua Exemplo, 123                        Centro         Sao Paulo           01001000SP                                                                            000000
0010001300137P 010010001 000000000001 d5920137-acd8-47bc-9                        111111111111111SUIT:d5920137-a - 541151 00674          000000000009407000001000010000023102025000000000000000           0000    01                            
0010001300137Q 011111111111111111SUIT:d5920137-a - 541151 0067463-04.2024Rua Exemplo, 123                        Centro         Sao Paulo           01001000SP                                                                            000000
0010001300138P 010010001 000000000001 c5e5eac5-56d6-4edb-9                        111111111111111SUIT:c5e5eac5-5 - 246624 10047          000000000050000000001000010000023102025000000000000000           0000    01                            
0010001300138Q 011111111111111111SUIT:c5e5eac5-5 - 246624 1004730-36.2018Rua Exemplo, 123                        Centro         Sao Paulo           01001000SP                                                                            000000
0010001300139P 010010001 000000000001 ec48e111-d23a-4371-8                        111111111111111SUIT:ec48e111-d - Suit: 338068          000000000074884000001000010000023102025000000000000000           0000    01                            
0010001300139Q 011111111111111111SUIT:ec48e111-d - Suit: 338068 Alvará - Rua Exemplo, 123                        Centro         Sao Paulo           01001000SP                                                                            000000
0010001300140P 010010001 000000000001 ea07aab1-3350-44c4-b                        111111111111111SUIT:ea07aab1-3 - 272841 07002          000000000015000000001000010000023102025000000000000000           0000    01                            
0010001300140Q 011111111111111111SUIT:ea07aab1-3 - 272841 0700268-52.2018Rua Exemplo, 123                        Centro         Sao Paulo           01001000SP                                                                            000000
0010001300141P 010010001 000000000001 e40c6391-749c-4e2a-8                        111111111111111SUIT:e40c6391-7 - PASTA: 33047          000000000020715000001000010000023102025000000000000000           0000    01                            
0010001300141Q 011111111111111111SUIT:e40c6391-7 - PASTA: 3304702 PROCESSRua Exemplo, 123                        Centro         Sao Paulo           01001000SP                                                                            000000
0010001300142P 010010001 000000000001 ff5c051c-1b10-4e39-8                        111111111111111SUIT:ff5c051c-1 - PASTA: 32457          000000000026339000001000010000023102025000000000000000           0000    01                            
0010001300142Q 011111111111111111SUIT:ff5c051c-1 - PASTA: 3245740 PROCESSRua Exemplo, 123                        Centro         Sao Paulo           01001000SP                                                                            000000
0010001300143P 010010001 000000000001 ff7f4574-7167-4f91-9                        111111111111111SUIT:ff7f4574-7 - 166622 10025          000000000030000000001000010000023102025000000000000000           0000    01                            
0010001300143Q 011111111111111111SUIT:ff7f4574-7 - 166622 1002590-39.2014Rua Exemplo, 123                        Centro         Sao Paulo           01001000SP                                                                            000000
0010001300144P 010010001 000000000001 fb0bc114-a557-44ed-9                        111111111111111SUIT:fb0bc114-a - Dossiê:34727          000000000123845000001000010000023102025000000000000000           0000    01                            
0010001300144Q 011111111111111111SUIT:fb0bc114-a - Dossiê:3472794 N° do pRua Exemplo, 123                        Centro         Sao Paulo           01001000SP                                                                            000000
0010001300145P 010010001 000000000001 fa20ba9c-dbc1-4d42-8                        111111111111111SUIT:fa20ba9c-d - 459840 10585          000000000034635000001000010000023102025000000000000000           0000    01                            
0010001300145Q 011111111111111111SUIT:fa20ba9c-d - 459840 1058558-34.2021Rua Exemplo, 123                        Centro         Sao Paulo           01001000SP                                                                            000000
0010001300146P 010010001 000000000001 f62af3dc-5a28-4535-a                        111111111111111SUIT:f62af3dc-5 - Processo: 00          000000000010000000001000010000023102025000000000000000           0000    01                            
0010001300146Q 011111111111111111SUIT:f62af3dc-5 - Processo: 0002046-44.2Rua Exemplo, 123                        Centro         Sao Paulo           01001000SP                                                                            000000
0010001300147P 010010001 000000000001 f528f6ba-2315-4544-9                        111111111111111SUIT:f528f6ba-2 - 140125 00372          000000000030000000001000010000023102025000000000000000           0000    01                            
0010001300147Q 011111111111111111SUIT:f528f6ba-2 - 140125 0037243-80.2011Rua Exemplo, 123                        Centro         Sao Paulo           01001000SP                                                                            000000
0010001300148P 010010001 000000000001 f79c1b06-7fd4-416f-a                        111111111111111SUIT:f79c1b06-7 - 263440 00011          000000000030000000001000010000023102025000000000000000           0000    01                            
0010001300148Q 011111111111111111SUIT:f79c1b06-7 - 263440 0001137-49.2019Rua Exemplo, 123                        Centro         Sao Paulo           01001000SP                                                                            000000
0010001300149P 010010001 000000000001 fa2bdaf8-a32d-4274-9                        111111111111111SUIT:fa2bdaf8-a - SUIT: 288361          000000000045645000001000010000023102025000000000000000           0000    01                            
0010001300149Q 011111111111111111SUIT:fa2bdaf8-a - SUIT: 2883617 N° ProceRua Exemplo, 123                        Centro         Sao Paulo           01001000SP                                                                            000000
0010001300150P 010010001 000000000001 e5b228cb-b56c-4193-9                        111111111111111SUIT:e5b228cb-b - Processo: 00          000000000028960000001000010000023102025000000000000000           0000    01                            
0010001300150Q 011111111111111111SUIT:e5b228cb-b - Processo: 0003821-60.2Rua Exemplo, 123                        Centro         Sao Paulo           01001000SP                                                                            000000
0010001300151P 010010001 000000000001 ee9a37b7-aca9-46eb-b                        111111111111111SUIT:ee9a37b7-a - Dossiê: 3830          000000000034328000001000010000023102025000000000000000           0000    01                            
0010001300151Q 011111111111111111SUIT:ee9a37b7-a - Dossiê: 3830620 N° do Rua Exemplo, 123                        Centro         Sao Paulo           01001000SP                                                                            000000
0010001300152P 010010001 000000000001 df0bd1fd-0244-4ba1-9                        111111111111111SUIT:df0bd1fd-0 - PASTA: 34170          000000000028832000001000010000023102025000000000000000           0000    01                            
0010001300152Q 011111111111111111SUIT:df0bd1fd-0 - PASTA: 3417056 PROCESSRua Exemplo, 123                        Centro         Sao Paulo           01001000SP                                                                            000000
0010001300153P 010010001 000000000001 e20c00b1-1218-4bab-a                        111111111111111SUIT:e20c00b1-1 - 284142 50215          000000000035000000001000010000023102025000000000000000           0000    01                            
0010001300153Q 011111111111111111SUIT:e20c00b1-1 - 284142 5021545-34.2018Rua Exemplo, 123                        Centro         Sao Paulo           01001000SP                                                                            000000
0010001300154P 010010001 000000000001 dd00154c-c24e-4d70-a                        111111111111111SUIT:dd00154c-c - PASTA: 36301          000000000038411000001000010000023102025000000000000000           0000    01                            
0010001300154Q 011111111111111111SUIT:dd00154c-c - PASTA: 3630162 PROCESSRua Exemplo, 123                        Centro         Sao Paulo           01001000SP                                                                            000000
0010001300155P 010010001 000000000001 c604278d-09e1-41d9-9                        111111111111111SUIT:c604278d-0 - NX 1745532*           000000000005000000001000010000023102025000000000000000           0000    01                            
0010001300155Q 011111111111111111SUIT:c604278d-0 - NX 1745532* Proc.10936Rua Exemplo, 123                        Centro         Sao Paulo           01001000SP                                                                            000000
0010001300156P 010010001 000000000001 caa2511c-7477-49da-b                        111111111111111SUIT:caa2511c-7 - NX - 1294180          000000000250000000001000010000023102025000000000000000           0000    01                            
0010001300156Q 011111111111111111SUIT:caa2511c-7 - NX - 1294180 Dr. Igor Rua Exemplo, 123                        Centro         Sao Paulo           01001000SP                                                                            000000
0010001300157P 010010001 000000000001 cde36326-3436-4fdb-9                        111111111111111SUIT:cde36326-3 - SUIT: 333103          000000000084356000001000010000023102025000000000000000           0000    01                            
0010001300157Q 011111111111111111SUIT:cde36326-3 - SUIT: 3331035 N° ProceRua Exemplo, 123                        Centro         Sao Paulo           01001000SP                                                                            000000
0010001300158P 010010001 000000000001 ce00a8da-90e3-42d3-8                        111111111111111SUIT:ce00a8da-9 - 459406 03014          000000000031480000001000010000023102025000000000000000           0000    01                            
0010001300158Q 011111111111111111SUIT:ce00a8da-9 - 459406 0301405-95.2019Rua Exemplo, 123                        Centro         Sao Paulo           01001000SP                                                                            000000
0010001300159P 010010001 000000000001 79a2b089-af46-4784-a                        111111111111111SUIT:79a2b089-a - 459546 10023          000000000035000000001000010000023102025000000000000000           0000    01                            
0010001300159Q 011111111111111111SUIT:79a2b089-a - 459546 1002358-96.2021Rua Exemplo, 123                        Centro         Sao Paulo           01001000SP                                                                            000000
0010001300160P 010010001 000000000001 6dba76ed-74a1-40da-a                        111111111111111SUIT:6dba76ed-7 - #LS061056 -F          000000000005000000001000010000023102025000000000000000           0000    01                            
0010001300160Q 011111111111111111SUIT:6dba76ed-7 - #LS061056 -FATAL 03/10Rua Exemplo, 123                        Centro         Sao Paulo           01001000SP                                                                            000000
0010001300161P 010010001 000000000001 60b1cf3b-6702-40a6-b                        111111111111111SUIT:60b1cf3b-6 - Dossiê:32677          000000000066059000001000010000023102025000000000000000           0000    01                            
0010001300161Q 011111111111111111SUIT:60b1cf3b-6 - Dossiê:3267781 N° do pRua Exemplo, 123                        Centro         Sao Paulo           01001000SP                                                                            000000
0010001300162P 010010001 000000000001 6bf24848-4ed4-46ed-a                        111111111111111SUIT:6bf24848-4 - NX 1745532*           000000000056798000001000010000023102025000000000000000           0000    01                            
0010001300162Q 011111111111111111SUIT:6bf24848-4 - NX 1745532* Proc.10936Rua Exemplo, 123                        Centro         Sao Paulo           01001000SP                                                                            000000
0010001300163P 010010001 000000000001 a9375db1-8fbf-4bed-8                        111111111111111SUIT:a9375db1-8 - Suit: 140808          000000000151063000001000010000023102025000000000000000           0000    01                            
0010001300163Q 011111111111111111SUIT:a9375db1-8 - Suit: 140808 Alvará - Rua Exemplo, 123                        Centro         Sao Paulo           01001000SP                                                                            000000
0010001300164P 010010001 000000000001 a5f95dba-3f1b-4a3e-9                        111111111111111SUIT:a5f95dba-3 - 459356 00570          000000000032000000001000010000023102025000000000000000           0000    01                            
0010001300164Q 011111111111111111SUIT:a5f95dba-3 - 459356 0057039-33.2021Rua Exemplo, 123                        Centro         Sao Paulo           01001000SP                                                                            000000
0010001300165P 010010001 000000000001 9450a7bf-6dd8-4dd8-9                        111111111111111SUIT:9450a7bf-6 - 459214 00081          000000000050000000001000010000023102025000000000000000           0000    01                            
0010001300165Q 011111111111111111SUIT:9450a7bf-6 - 459214 0008132-42.2021Rua Exemplo, 123                        Centro         Sao Paulo           01001000SP                                                                            000000
0010001300166P 010010001 000000000001 ae093ffc-5861-4612-9                        111111111111111SUIT:ae093ffc-5 - Dossiê:32677          000000000013681000001000010000023102025000000000000000           0000    01                            
0010001300166Q 011111111111111111SUIT:ae093ffc-5 - Dossiê:3267781 N° do pRua Exemplo, 123                        Centro         Sao Paulo           01001000SP                                                                            000000
0010001300167P 010010001 000000000001 c04e17b2-55d4-4b85-b                        111111111111111SUIT:c04e17b2-5 - PASTA: 35436          000000000002374000001000010000023102025000000000000000           0000    01                            
0010001300167Q 011111111111111111SUIT:c04e17b2-5 - PASTA: 3543690 PROCESSRua Exemplo, 123                        Centro         Sao Paulo           01001000SP                                                                            000000
0010001300168P 010010001 000000000001 147eb765-2667-4d2e-b                        111111111111111SUIT:147eb765-2 - • Valor bloq          000000000035096000001000010000023102025000000000000000           0000    01                            
0010001300168Q 011111111111111111SUIT:147eb765-2 - • Valor bloqueado: R$ Rua Exemplo, 123                        Centro         Sao Paulo           01001000SP                                                                            000000
0010001300169P 010010001 000000000001 09483844-5194-4514-b                        111111111111111SUIT:09483844-5 - PASTA: 35436          000000000026115000001000010000023102025000000000000000           0000    01                            
0010001300169Q 011111111111111111SUIT:09483844-5 - PASTA: 3543690 PROCESSRua Exemplo, 123                        Centro         Sao Paulo           01001000SP                                                                            000000
0010001300170P 010010001 000000000001 0a89a698-ba14-4724-b                        111111111111111SUIT:0a89a698-b - PASTA: 33713          000000000029269000001000010000023102025000000000000000           0000    01                            
0010001300170Q 011111111111111111SUIT:0a89a698-b - PASTA: 3371358 PROCESSRua Exemplo, 123                        Centro         Sao Paulo           01001000SP                                                                            000000
0010001300171P 010010001 000000000001 2950f2f1-8873-42fa-b                        111111111111111SUIT:2950f2f1-8 - 283772 50047          000000000022000000001000010000023102025000000000000000           0000    01                            
0010001300171Q 011111111111111111SUIT:2950f2f1-8 - 283772 5004773-55.2019Rua Exemplo, 123                        Centro         Sao Paulo           01001000SP                                                                            000000
0010001300172P 010010001 000000000001 2ab32868-d034-49a6-a                        111111111111111SUIT:2ab32868-d - PASTA: 34869          000000000035310000001000010000023102025000000000000000           0000    01                            
0010001300172Q 011111111111111111SUIT:2ab32868-d - PASTA: 3486971 PROCESSRua Exemplo, 123                        Centro         Sao Paulo           01001000SP                                                                            000000
0010001300173P 010010001 000000000001 4ee1d73c-fa5c-41a0-8                        111111111111111SUIT:4ee1d73c-f - PASTA: 33415          000000000052519000001000010000023102025000000000000000           0000    01                            
0010001300173Q 011111111111111111SUIT:4ee1d73c-f - PASTA: 3341546 PROCESSRua Exemplo, 123                        Centro         Sao Paulo           01001000SP                                                                            000000
0010001300174P 010010001 000000000001 56151a7e-e38c-4aa3-a                        111111111111111SUIT:56151a7e-e - Total: R$ 18          000000000043137000001000010000023102025000000000000000           0000    01                            
0010001300174Q 011111111111111111SUIT:56151a7e-e - Total: R$ 18.121.74 LeRua Exemplo, 123                        Centro         Sao Paulo           01001000SP                                                                            000000
0010001300175P 010010001 000000000001 516246bd-e116-467b-b                        111111111111111SUIT:516246bd-e - 243887 10020          000000000055000000001000010000023102025000000000000000           0000    01                            
0010001300175Q 011111111111111111SUIT:516246bd-e - 243887 1002084-15.2018Rua Exemplo, 123                        Centro         Sao Paulo           01001000SP                                                                            000000
0010001300176P 010010001 000000000001 52ac0f9e-d98d-4166-a                        111111111111111SUIT:52ac0f9e-d - 246494 10031          000000000020088000001000010000023102025000000000000000           0000    01                            
0010001300176Q 011111111111111111SUIT:52ac0f9e-d - 246494 1003135-25.2018Rua Exemplo, 123                        Centro         Sao Paulo           01001000SP                                                                            000000
0010001300177P 010010001 000000000001 3849db13-ff22-4671-9                        111111111111111SUIT:3849db13-f - SUIT: 338440          000000000059183000001000010000023102025000000000000000           0000    01                            
0010001300177Q 011111111111111111SUIT:3849db13-f - SUIT: 3384406 N° ProceRua Exemplo, 123                        Centro         Sao Paulo           01001000SP                                                                            000000
0010001300178P 010010001 000000000001 323ba497-b865-442c-9                        111111111111111SUIT:323ba497-b - 247405 10167          000000000031807000001000010000023102025000000000000000           0000    01                            
0010001300178Q 011111111111111111SUIT:323ba497-b - 247405 1016753-06.2018Rua Exemplo, 123                        Centro         Sao Paulo           01001000SP                                                                            000000
0010001300179P 010010001 000000000001 4059cbdc-87db-4059-8                        111111111111111SUIT:4059cbdc-8 - Dossiê:36963          000000000013732000001000010000023102025000000000000000           0000    01                            
0010001300179Q 011111111111111111SUIT:4059cbdc-8 - Dossiê:3696308 N° do pRua Exemplo, 123                        Centro         Sao Paulo           01001000SP                                                                            000000
0010001300180P 010010001 000000000001 4228b81d-7af8-451a-a                        111111111111111SUIT:4228b81d-7 - 242739 10434          000000000034000000001000010000023102025000000000000000           0000    01                            
0010001300180Q 011111111111111111SUIT:4228b81d-7 - 242739 1043417-08.2018Rua Exemplo, 123                        Centro         Sao Paulo           01001000SP                                                                            000000
0010001300181P 010010001 000000000001 42cc4e90-53df-4fdc-a                        111111111111111SUIT:42cc4e90-5 - 277079 10008          000000000046500000001000010000023102025000000000000000           0000    01                            
0010001300181Q 011111111111111111SUIT:42cc4e90-5 - 277079 1000871-07.2019Rua Exemplo, 123                        Centro         Sao Paulo           01001000SP                                                                            000000
0010001300182P 010010001 000000000001 477569f7-0c27-425e-a                        111111111111111SUIT:477569f7-0 - #LS071024 -           000000000026000000001000010000023102025000000000000000           0000    01                            
0010001300182Q 011111111111111111SUIT:477569f7-0 - #LS071024 - RealizaçãoRua Exemplo, 123                        Centro         Sao Paulo           01001000SP                                                                            000000
0010001300183P 010010001 000000000001 46ea42a2-79db-47dd-9                        111111111111111SUIT:46ea42a2-7 - HO:R$ 18.631          000000000090900000001000010000023102025000000000000000           0000    01                            
0010001300183Q 011111111111111111SUIT:46ea42a2-7 - HO:R$ 18.631.00 EntradRua Exemplo, 123                        Centro         Sao Paulo           01001000SP                                                                            000000
0010001300184P 010010001 000000000001 46b34a90-9ba9-4d6a-9                        111111111111111SUIT:46b34a90-9 - Credi: Entra          000000000090000000001000010000023102025000000000000000           0000    01                            
0010001300184Q 011111111111111111SUIT:46b34a90-9 - Credi: Entrada de R$ 3Rua Exemplo, 123                        Centro         Sao Paulo           01001000SP                                                                            000000
0010001300185P 010010001 000000000001 5d339bba-2a88-4e1a-b                        111111111111111SUIT:5d339bba-2 - ACORDO FLUXO          000000000100000000001000010000023102025000000000000000           0000    01                            
0010001300185Q 011111111111111111SUIT:5d339bba-2 - ACORDO FLUXO: Entrada Rua Exemplo, 123                        Centro         Sao Paulo           01001000SP                                                                            000000
0010001300186P 010010001 000000000001 5aaa7820-df90-44f4-9                        111111111111111SUIT:5aaa7820-d - 574511* Proc          000000000009434000001000010000023102025000000000000000           0000    01                            
0010001300186Q 011111111111111111SUIT:5aaa7820-d - 574511* Processo: 5003Rua Exemplo, 123                        Centro         Sao Paulo           01001000SP                                                                            000000
0010001300187P 010010001 000000000001 5c47ba1c-0e18-4c45-8                        111111111111111SUIT:5c47ba1c-0 - 459709 10140          000000000050000000001000010000023102025000000000000000           0000    01                            
0010001300187Q 011111111111111111SUIT:5c47ba1c-0 - 459709 1014097-93.2021Rua Exemplo, 123                        Centro         Sao Paulo           01001000SP                                                                            000000
0010001300188P 010010001 000000000001 50e3b9e9-7d7e-407f-9                        111111111111111SUIT:50e3b9e9-7 - 176914 50128          000000000048000000001000010000023102025000000000000000           0000    01                            
0010001300188Q 011111111111111111SUIT:50e3b9e9-7 - 176914 5012889-59.2018Rua Exemplo, 123                        Centro         Sao Paulo           01001000SP                                                                            000000
0010001300189P 010010001 000000000001 4b981495-ac46-4796-b                        111111111111111SUIT:4b981495-a - 246969 10077          000000000050000000001000010000023102025000000000000000           0000    01                            
0010001300189Q 011111111111111111SUIT:4b981495-a - 246969 1007757-63.2015Rua Exemplo, 123                        Centro         Sao Paulo           01001000SP                                                                            000000
0010001300190P 010010001 000000000001 4c9592e3-c8ab-4f8f-9                        111111111111111SUIT:4c9592e3-c - ACORDO PROCE          000000001000000000001000010000023102025000000000000000           0000    01                            
0010001300190Q 011111111111111111SUIT:4c9592e3-c - ACORDO PROCESSO: 01235Rua Exemplo, 123                        Centro         Sao Paulo           01001000SP                                                                            000000
0010001300191P 010010001 000000000001 49c80cd5-3dd1-4177-a                        111111111111111SUIT:49c80cd5-3 - HO:R$ 18.631          000000000090900000001000010000023102025000000000000000           0000    01                            
0010001300191Q 011111111111111111SUIT:49c80cd5-3 - HO:R$ 18.631.00 EntradRua Exemplo, 123                        Centro         Sao Paulo           01001000SP                                                                            000000
0010001300192P 010010001 000000000001 4a89485a-32f1-492b-b                        111111111111111SUIT:4a89485a-3 - 176141 08520          000000000020000000001000010000023102025000000000000000           0000    01                            
0010001300192Q 011111111111111111SUIT:4a89485a-3 - 176141 0852094-16.2017Rua Exemplo, 123                        Centro         Sao Paulo           01001000SP                                                                            000000
0010001300193P 010010001 000000000001 29809c7a-3ea4-4ad4-8                        111111111111111SUIT:29809c7a-3 - Dossiê:35622          000000000010315000001000010000023102025000000000000000           0000    01                            
0010001300193Q 011111111111111111SUIT:29809c7a-3 - Dossiê:3562268 N° do pRua Exemplo, 123                        Centro         Sao Paulo           01001000SP                                                                            000000
0010001300194P 010010001 000000000001 2af11b7e-dd99-4ae6-8                        111111111111111SUIT:2af11b7e-d - *527490 Proc          000000000007503000001000010000023102025000000000000000           0000    01                            
0010001300194Q 011111111111111111SUIT:2af11b7e-d - *527490 Processo: 1005Rua Exemplo, 123                        Centro         Sao Paulo           01001000SP                                                                            000000
0010001300195P 010010001 000000000001 2f59603a-1baf-4909-8                        111111111111111SUIT:2f59603a-1 - Processo 001          000000000500000000001000010000023102025000000000000000           0000    01                            
0010001300195Q 011111111111111111SUIT:2f59603a-1 - Processo 0014244-95.20Rua Exemplo, 123                        Centro         Sao Paulo           01001000SP                                                                            000000
0010001300196P 010010001 000000000001 1c3d53e7-f27e-45a5-a                        111111111111111SUIT:1c3d53e7-f - • Valor bloq          000000000114344000001000010000023102025000000000000000           0000    01                            
0010001300196Q 011111111111111111SUIT:1c3d53e7-f - • Valor bloqueado: R$ Rua Exemplo, 123                        Centro         Sao Paulo           01001000SP                                                                            000000
0010001300197P 010010001 000000000001 1f8e2cff-1778-45a2-b                        111111111111111SUIT:1f8e2cff-1 - Valor acorda          000000005630855000001000010000023102025000000000000000           0000    01                            
0010001300197Q 011111111111111111SUIT:1f8e2cff-1 - Valor acordado: R$ 218Rua Exemplo, 123                        Centro         Sao Paulo           01001000SP                                                                            000000
0010001300198P 010010001 000000000001 06554dfc-2ed4-4a9a-9                        111111111111111SUIT:06554dfc-2 - • Valor bloq          000000000012702000001000010000023102025000000000000000           0000    01                            
0010001300198Q 011111111111111111SUIT:06554dfc-2 - • Valor bloqueado: R$ Rua Exemplo, 123                        Centro         Sao Paulo           01001000SP                                                                            000000
0010001300199P 010010001 000000000001 01307c6d-4920-4c86-8                        111111111111111SUIT:01307c6d-4 - AT 399 Proc           000000000064000000001000010000023102025000000000000000           0000    01                            
0010001300199Q 011111111111111111SUIT:01307c6d-4 - AT 399 Proc n° 0000786Rua Exemplo, 123                        Centro         Sao Paulo           01001000SP                                                                            000000
0010001300200P 010010001 000000000001 0ba59ef3-36cd-4fa9-8                        111111111111111SUIT:0ba59ef3-3 - AUDIÊNCIA RE          000000000018000000001000010000023102025000000000000000           0000    01                            
0010001300200Q 011111111111111111SUIT:0ba59ef3-3 - AUDIÊNCIA REALIZADA E Rua Exemplo, 123                        Centro         Sao Paulo           01001000SP                                                                            000000
0010001300201P 010010001 000000000001 0d4976cb-8229-4c26-a                        111111111111111SUIT:0d4976cb-8 - HO:R$ 18.631          000000000090900000001000010000023102025000000000000000           0000    01                            
0010001300201Q 011111111111111111SUIT:0d4976cb-8 - HO:R$ 18.631.00 EntradRua Exemplo, 123                        Centro         Sao Paulo           01001000SP                                                                            000000
0010001300202P 010010001 000000000001 0eb85354-897f-4c6b-8                        111111111111111SUIT:0eb85354-8 - *447947 Proc          000000000022945000001000010000023102025000000000000000           0000    01                            
0010001300202Q 011111111111111111SUIT:0eb85354-8 - *447947 Processo: 1003Rua Exemplo, 123                        Centro         Sao Paulo           01001000SP                                                                            000000
0010001300203P 010010001 000000000001 bee0df78-971e-4ee4-8                        111111111111111SUIT:bee0df78-9 - AT 399 Proc           000000000012800000001000010000023102025000000000000000           0000    01                            
0010001300203Q 011111111111111111SUIT:bee0df78-9 - AT 399 Proc n° 0000786Rua Exemplo, 123                        Centro         Sao Paulo           01001000SP                                                                            000000
0010001300204P 010010001 000000000001 ac33fbe6-1a25-4f0d-9                        111111111111111SUIT:ac33fbe6-1 - Suit: 284109          000000001377478000001000010000023102025000000000000000           0000    01                            
0010001300204Q 011111111111111111SUIT:ac33fbe6-1 - Suit: 284109 Alvará - Rua Exemplo, 123                        Centro         Sao Paulo           01001000SP                                                                            000000
0010001300205P 010010001 000000000001 91aec6b5-cca5-4ef9-8                        111111111111111SUIT:91aec6b5-c - *447947 Proc          000000000025000000001000010000023102025000000000000000           0000    01                            
0010001300205Q 011111111111111111SUIT:91aec6b5-c - *447947 Processo: 1003Rua Exemplo, 123                        Centro         Sao Paulo           01001000SP                                                                            000000
0010001300206P 010010001 000000000001 93d7307c-1710-4cc3-b                        111111111111111SUIT:93d7307c-1 - *459107 Proc          000000000009600000001000010000023102025000000000000000           0000    01                            
0010001300206Q 011111111111111111SUIT:93d7307c-1 - *459107 Processo: 1015Rua Exemplo, 123                        Centro         Sao Paulo           01001000SP                                                                            000000
